:060000000A128A110C280F
:10000800FE00030EF1000A08F2000A128A111428F1
:100018000A128A110F28F30183010A128A1145284E
:100028000B1C172818282A2883120313061C1D28BE
:100038001E2823280130F0007008F3072928861CA1
:100048002628272829280130F3020B1072088A0075
:10005800710E8300FE0E7E0E0900831603178801B9
:100068008901831603138501033086008312031365
:100078008501860188308B000330831603139600B0
:1000880008000A128A1131200A128A117308831291
:0C009800031385004A280A128A110C2864
:08400000FF3FFF3FFF3FFF3FC0
:04400E00D420FF3F7C
:00000001FF
